:100000000C9498000C94C0000C94C0000C94C00098
:100010000C94C0000C94C0000C94C0000C94C00060
:100020000C94C0000C94C0000C948B030C94FD0342
:100030000C94C0000C94C0000C94C0000C94C00040
:100040000C94C0000C94C0000C94C0000C94C00030
:100050000C94C0000C94C0000C94C0000C9441039C
:100060000C94C0000C94C0000C94C0000C94C00010
:100070000C94C0000C94C0000C94C0000C94C00000
:100080000C94C0000C94C0000C94C0000C94C000F0
:100090000C94C0000C94C0000C94C0000C94C000E0
:1000A0000C94C0000C94C0000C94C000080B00021B
:1000B0000202010009040000010202000005240000
:1000C0001001052401010104240206052406000193
:1000D0000705810310004009040100020A00000026
:1000E00007050202400000070583024000000403E8
:1000F000090441726475696E6F204C4C4300417273
:100100006475696E6F2059756E001201000200005F
:10011000004041234180000101020301120100025D
:10012000EF020140412341800001010203013A0630
:1001300011241FBECFEFDAE0DEBFCDBF11E0A0E09B
:10014000B1E0E4EAFEE002C005900D92A432B107EE
:10015000D9F721E0A4E2B1E001C01D92A33AB207B1
:10016000E1F710E0C8E9D0E004C02197FE010E9449
:100170004507C739D107C9F70E944F060C945007AD
:100180000C940000FC018091A201811103C08FEF4B
:100190009FEF08959FB7F89482E08093E900209143
:1001A000F20030E01216130614F421E030E02115BD
:1001B000310559F0289884E68093A1018091F100DF
:1001C00080838091F200882319F09FBFC9010895B0
:1001D0008BE68093E800F9CFCF92DF92EF92FF9207
:1001E0000F931F93CF93DF936C017A018B01C0E0D3
:1001F000D0E0CE15DF0589F0D8016D918D01D601D3
:10020000ED91FC910190F081E02DC6010995892BBB
:1002100011F47E0102C02196ECCFC701DF91CF918E
:100220001F910F91FF90EF90DF90CF9008958091F4
:10023000990181110DC082E08093950184E0809343
:100240009601109298011092970181E08093990194
:1002500085E991E00895CF93DF931F92CDB7DEB784
:100260006983DC01ED91FC910280F381E02D41E096
:1002700050E0BE016F5F7F4F09950F90DF91CF91E6
:10028000089583E08093E9008091F200882319F0BB
:100290008AE38093E8000895CF93DF931F92CDB750
:1002A000DEB7FC018485958597FD05C02FEF3FEFF4
:1002B000358724870BC0CE0101960E94C2000197AA
:1002C00019F4898190E002C08FEF9FEF0F90DF91CA
:1002D000CF9108950F931F93CF93DF931F92CDB7C4
:1002E000DEB78C01FC018485958597FF0EC0CE0199
:1002F00001960E94C200019719F4298130E002C0E2
:100300002FEF3FEFF80135872487F8018485958525
:100310000F90DF91CF911F910F910895FC0184857B
:10032000958597FD0BC09FB7F89482E08093E90014
:100330008091F2009FBF90E0019608959FB7F894D6
:1003400082E08093E9008091F2009FBF90E00895E1
:100350003FB7F89480913F0190914001A0914101F5
:10036000B091420126B5A89B05C02F3F19F0019618
:10037000A11DB11D3FBFBA2FA92F982F8827820F2B
:10038000911DA11DB11DBC01CD0142E0660F771F7B
:10039000881F991F4A95D1F70895CF92DF92EF9267
:1003A000FF920E94A8016B017C010E94A801DC0160
:1003B000CB018C199D09AE09BF09883E9340A10568
:1003C000B10598F3FF90EF90DF90CF9008958F9252
:1003D0009F92AF92BF92CF92DF92EF92FF920F93D4
:1003E0001F93CF93DF935C016B018A0180910C0115
:1003F000882309F459C08091A201882309F454C0CC
:100400008091440180FF05C08091E000826080936C
:10041000E000E8018AEFF82E93E0E92E2FE3822E28
:100420003AE3932E2097C9F18FB7F894E092E90050
:100430009091E80095FF06C09091F200282D291BAD
:10044000922F01C090E08FBF911106C0FA94FF2057
:1004500059F10E94CD01E6CF292F30E0C217D30712
:100460000CF49C2F8FB7F894E092E9002091E800FB
:1004700025FF11C0292F30E0C21BD30BF60191508C
:1004800020F041914093F100FACFC20ED31E90911B
:10049000E80095FF13C08FBFC5CF5D9884E68093B9
:1004A00043011016110644F081E090E0F5019383BA
:1004B000828380E090E005C0C80103C09092E8000C
:1004C000EACFDF91CF911F910F91FF90EF90DF90D6
:1004D000CF90BF90AF909F908F900895409136013C
:1004E0005091370120913401309135014217530763
:1004F000B4F49091E8009570E1F39091E80092FDDA
:1005000019C08093F10080913601909137010196D6
:100510008F739927892B19F48EEF8093E8008091CF
:1005200036019091370101969093370180933601FF
:1005300081E0089580E00895CF92DF92EF92FF92DC
:100540000F931F93CF93DF931F92CDB7DEB7182F72
:10055000062FE42E862F880F8E5F99830E946E02ED
:1005600083E00E946E02F12EC12E9981D92E8C2D2E
:100570008F19801798F4F601E7FE02C0849101C03C
:1005800080810E946E02182F80E00E946E028123FB
:10059000FFEFCF1ADF0A8111EACF01C081E00F908F
:1005A000DF91CF911F910F91FF90EF90DF90CF904F
:1005B0000895DF92EF92FF920F931F93CF93DF93F3
:1005C000D82E8A017B01E40EF51EEB01CE15DF0566
:1005D00071F0D7FE03C0FE01849101C088810E94A2
:1005E0006E0221968111F2CF8FEF9FEF01C0C801FB
:1005F000DF91CF911F910F91FF90EF90DF900895C1
:100600000F931F93CF93DF931F92CDB7DEB782E096
:10061000898342E450E06CEA70E080E80E94D902ED
:100620000E941701DC0112960D911C911397011580
:10063000110569F0D801ED91FC910280F381E02D64
:10064000BE016F5F7F4FC801099597FF07C0898181
:100650000F90DF91CF911F910F910895F8010085C0
:100660001185E5CF615030F02091F100FC0120832D
:100670000196F8CF289884E68093A10108950E94FE
:100680004B071F920F920FB60F9211242F933F9397
:100690008F939F93AF93BF9380913B0190913C01C7
:1006A000A0913D01B0913E0130913A0123E0230F2A
:1006B0002D3720F40196A11DB11D05C026E8230F9A
:1006C0000296A11DB11D20933A0180933B019093A6
:1006D0003C01A0933D01B0933E0180913F01909178
:1006E0004001A0914101B09142010196A11DB11DAF
:1006F00080933F0190934001A0934101B093420148
:10070000BF91AF919F918F913F912F910F900FBE0D
:100710000F901F9018951F920F920FB60F921124F1
:100720008F939F938091E1009091E100937F90934C
:10073000E10083FF0FC01092E90091E09093EB007D
:100740001092EC0092E39093ED001092A20198E0D9
:100750009093F00082FF20C093E09093E900909185
:10076000F200992319F09AE39093E80090914301E5
:10077000992339F09091430191509093430199232B
:1007800089F19091A101992339F09091A1019150A3
:100790009093A101992341F184FF10C08091E20060
:1007A0008E7E81608093E2008091E1008F7E809355
:1007B000E100809144018E7E806111C080FF16C0EF
:1007C0008091E2008E7E80618093E2008091E10062
:1007D0008E7E8093E100809144018E7E81608093C3
:1007E000440104C05D9ACDCF289AD6CF9F918F91B6
:1007F0000F900FBE0F901F9018951F920F920FB67B
:100800000F921124CF92DF92EF92FF920F931F93DA
:100810002F933F934F935F936F937F938F939F9308
:10082000AF93BF93EF93FF93CF93DF93CDB7DEB733
:100830006C97DEBFCDBF1092E9008091E80083FF86
:10084000FAC168E0CE0145960E94320382EF8093A0
:10085000E8008D8987FF05C09091E80090FFFCCFEC
:1008600003C09EEF9093E800982F907609F0C6C0E1
:100870009E892F89188D91110CC0803829F48091A0
:1008800039018093F10002C01092F1001092F10042
:1008900047C1422F50E0512B913051F4811140C19A
:1008A0004130510509F03CC1809139018D7F0BC069
:1008B000933061F4811134C14130510509F030C1E8
:1008C000809139018260809339012AC1953041F4C9
:1008D0008091E80080FFFCCF20682093E30020C1D6
:1008E000963009F05FC0EB8CFC8C1092E9001092FE
:1008F000370110923601123091F5109235011092A5
:1009000034010E94000399E0BE016F5F7F4FDB015D
:10091000E92F1D92EA95E9F799831A8391E09E8366
:1009200090EA98879AEF99872091360130913701A4
:10093000275F3F4F3C832B838D831092E9001092F9
:10094000370110923601F0923501E092340149E00E
:1009500050E080E00E94D9020E940003E1C0F092C2
:100960003501E09234010E941701DC011296ED90EE
:10097000FC901397E114F10409F4C0C0D701ED9184
:10098000FC910480F581E02DBE016B5E7F4FC701B5
:100990000995009719F00CF0C3C0C6C0F701E084B8
:1009A000F184E8CF973009F4BFC0983021F481E09A
:1009B0008093F100B5C0993009F0B2C0837009F09E
:1009C000B3C0EEE0F1E081E021E036E390819923CD
:1009D00061F08093E9002093EB0091919093EC00FB
:1009E0003093ED008F5F873089F78EE78093EA00C0
:1009F0001092EA008F898093A20192C08B8D9C8D0A
:100A00001092E9001092370110923601909335014F
:100A100080933401898D811156C08E899D89913AC8
:100A200059F4813209F080C047E050E065E071E0A0
:100A300080E00E94D90274C0913209F075C08332FF
:100A400089F4888D90E0982F88272F89822BA0E049
:100A5000B0E08093010190930201A0930301B09351
:100A600004015EC0803269F48091E80082FFFCCF0F
:100A700067E085E091E00E9432038BEF8093E8000D
:100A800006C0823209F04CC08F8980930C0180919E
:100A90003801882319F0EEEFFAE002C0E0E0F8E058
:100AA0008091050190910601A0910701B091080184
:100AB000803B9440A105B10509F088C080910C01EC
:100AC00080FFA0C083C00E941701DC0112960D9127
:100AD0001C9113970115110539F1D801ED91FC9185
:100AE0000190F081E02DBE016B5E7F4FC80109953A
:100AF000811116C0F80100851185ECCF1130C1F0CD
:100B0000133091F48F89882309F455C08230E9F4B9
:100B100040E86BE08EEF90E00E949C02882321F079
:100B20008EEF8093E80087C081E28093EB0083C062
:100B30008B8D9C8D089711F41093330180913301B4
:100B4000811136C06AE071E038C0813029F440E894
:100B50006BE082EF90E0E0CF833031F70E94170125
:100B6000DC011296ED90FC9013978E010F5F1F4FE2
:100B70006801E114F10479F0D701ED91FC91068050
:100B8000F781E02DB801C7010995080F111DF70184
:100B9000E084F184EECFD8011C92F6010190002090
:100BA000E9F73197BF016C197D0940E0C601B4CF68
:100BB0006CE171E002C06EEE70E06115710509F440
:100BC000B3CFFB01449150E080E833CF0FB6F894E7
:100BD000A895809160008861809360001092600009
:100BE0000FBEA895EE3F2AE0F20739F08091FE0A89
:100BF0009091FF0A9183808393CF1092FF0A109205
:100C0000FE0A8ECFEE3F8AE0F80731F080819181B5
:100C10009093FF0A8093FE0A87E797E7918380838A
:100C20009BE088E10FB6F894A895809360000FBE12
:100C30009093600075CF6C960FB6F894DEBF0FBE30
:100C4000CDBFDF91CF91FF91EF91BF91AF919F9178
:100C50008F917F916F915F914F913F912F911F9154
:100C60000F91FF90EF90DF90CF900F900FBE0F90FD
:100C70001F901895E5E4F1E01382128288EE93E06C
:100C8000A0E0B0E084839583A683B78388E191E0F8
:100C9000918380838FEF9FEF958784870895789461
:100CA00084B5826084BD84B5816084BD85B5826071
:100CB00085BD85B5816085BD80916E008160809322
:100CC0006E0010928100809181008260809381008B
:100CD000809181008160809381008091800081609B
:100CE0008093800080919100826080939100809138
:100CF0009100816080939100809190008160809349
:100D000090008091C10084608093C1008091C100F7
:100D100082608093C1008091C10081608093C10096
:100D20008091C30081608093C3008091C000826085
:100D30008093C0008091C20081608093C200809146
:100D40007A00846080937A0080917A008260809338
:100D50007A0080917A00816080937A0080917A0095
:100D6000806880937A001092A2011092390110924B
:100D700044018091D70081608093D70080EA8093FE
:100D8000D80089B5806189BD89B5826089BD09B403
:100D900000FEFDCF0E94CD018091D8008F7C806144
:100DA0008093D8008091E000807F8093E000809164
:100DB000E1008E7E8093E1008DE08093E200559A01
:100DC000209AEEEFFFE7859194918B3F9C4D19F4AB
:100DD00081E080933801C0E0D0E0C12CD12C80E8C4
:100DE000E82E8FE3F82E209100018091250190914B
:100DF00026013091240181309105F1F1332319F05E
:100E00008330910579F0222319F084309105B9F1EE
:100E100085309105B9F18330910541F08430910519
:100E200031F402C084E090E021E001C031E020977D
:100E300011F320930001C0922701D0922801E09283
:100E40002901F0922A01C0922B01D0922C01E0924C
:100E50002D01F0922E01C0922F01D0923001E0922C
:100E60003101F09232019093260180932501309355
:100E700024010E940000B7CF82E090E0D8CF85E047
:100E800090E0D5CF86E090E0D2CFEE0FFF1F059027
:100E9000F491E02D099481E090E0F8940C945007CF
:040EA000F894FFCFF4
:100EA40001FFFFFFFF00E100000000000000C1801F
:100EB40081000000000000002B01E7018E014C01BD
:040EC4006A0141017D
:00000001FF
